:0400000065EF00F0B8
:060008004682DFED05F069
:100018004680D8CF60F0E8CF61F0E0CF62F0FACF49
:1000280063F0FBCF64F0E9CF65F0EACF66F0E1CF8B
:1000380067F0E2CF68F0D9CF69F0DACF6AF0F3CF92
:100048006BF0F4CF6CF0F6CF6DF0F7CF6EF0F8CF21
:100058006FF0F5CF70F046C071F047C072F048C03D
:1000680073F049C074F0F4EC07F074C049F073C041
:1000780048F072C047F071C046F070C0F5FF6FC01D
:10008800F8FF6EC0F7FF6DC0F6FF6CC0F4FF6BC0E1
:10009800F3FF6AC0DAFF69C0D9FF68C0E2FF67C032
:1000A800E1FF66C0EAFF65C0E9FF64C0FBFF63C00B
:1000B800FAFF62C0E0FF61C0E8FF60C0D8FF469069
:0600C8001000A3EF08F098
:09080000000D30303A30300000E8
:10080A0081B009D0000120EE01F07951D9267A5140
:10081A00DA22000E22D081A021D0000120EE01F0C0
:10082A007951D9267A51DA22DF50D8A417D020EE8E
:10083A0003F07951D9267A51DA2210EE03F0795170
:10084A00E1267A51E222E750FF0ADF6E20EE01F03C
:10085A007951D9267A51DA22010EDF6E000120EE93
:10086A0003F07951D9267A51DA22DE04D8B412007B
:10087A0020EE04F07951D9267A51DA22DE2A000EC6
:10088A00DD2220EE04F07951D9267A51DA22DECF20
:10089A007BF0DDCF7CF0FF0E7B25756FFF0E7C2190
:1008AA00766F000E786F0A0E776FD2EC07F00001B0
:1008BA0075517611D8A4120020EE04F07951D92688
:1008CA007A51DA22A10EDE1815E18C0EDE18D8A4B0
:1008DA0011D020EE04F07951D9267A51DA22000E8D
:1008EA00DE6E000EDD6E020E756F080E766F66EC18
:1008FA0008F01200800EC0EC08F0000120EE04F0AF
:10090A007951D9267A51DA22DECF7BF0DDCF7CF01D
:10091A00FF0E7B25756FFF0E7C21766F170E786FA1
:10092A00700E776F5EEC07F000017551836F83518B
:10093A000A0DF35000087B6F20EE04F07951D92696
:10094A007A51DA22DECF7CF0DDCF7DF0FF0E7C25F6
:10095A00756FFF0E7D21766F020E786F580E776FD6
:10096A005EEC07F0000175517B25826F8251060DFE
:10097A00F35000087B6F83513C0DF35000087C6FE5
:10098A0020EE04F07951D9267A51DA22DECF7DF0B1
:10099A00DDCF7EF0FF0E7D25756FFF0E7E21766F0F
:1009AA00000E786F640E776F5EEC07F000017551E8
:1009BA007C257B25816F81510A0DF35000087B6FDE
:1009CA0082513C0DF35000087C6F83C075F0766B42
:1009DA00020E786F580E776F7CEC08F000017551A3
:1009EA0000087D6F20EE04F07951D9267A51DA2277
:1009FA00DECF7EF0DDCF7FF0FF0E7E25756FFF0E16
:100A0A007F21766F000E786F0A0E776F5EEC07F023
:100A1A00000175517D257C257B25806F8351300F20
:100A2A0031EC08F000018251300F31EC08F03A0E37
:100A3A0031EC08F000018151300F31EC08F000016F
:100A4A008051300F31EC08F01200000120EE03F063
:100A5A007951D9267A51DA22DE04D8B4120020EE6E
:100A6A0004F07951D9267A51DA22DECF7BF0DDCF34
:100A7A007CF0FF0E7B25756FFF0E7C21766F170EBB
:100A8A00786F700E776F5EEC07F000017551836F17
:100A9A0083510A0DF35000087B6F20EE04F0795160
:100AAA00D9267A51DA22DECF7CF0DDCF7DF0FF0E37
:100ABA007C25756FFF0E7D21766F020E786F580EBA
:100ACA00776F5EEC07F0000175517B25826F8251CA
:100ADA00060DF35000087B6F83513C0DF35000085C
:100AEA007C6F20EE04F07951D9267A51DA22DECFD2
:100AFA007DF0DDCF7EF0FF0E7D25756FFF0E7E2126
:100B0A00766F000E786F640E776F5EEC07F0000167
:100B1A0075517C257B25816F81510A0DF3500008A0
:100B2A007B6F82513C0DF35000087C6F83C075F0D7
:100B3A00766B020E786F580E776F7CEC08F0000126
:100B4A00755100087D6F20EE04F07951D9267A514B
:100B5A00DA22DECF7EF0DDCF7FF0FF0E7E25756FC5
:100B6A00FF0E7F21766F000E786F0A0E776F5EECAC
:100B7A0007F0000175517D257C257B25806F0D0EC0
:100B8A00E6EC08F000018351300FE6EC08F00001B2
:100B9A008251300FE6EC08F03A0EE6EC08F000015C
:100BAA008151300FE6EC08F000018051300FE6EC7D
:100BBA0008F012000600FACF2EF0FBCF2FF0E9CF93
:100BCA0030F0EACF31F0E1CF32F0E2CF33F0D9CFD3
:100BDA0034F0DACF35F0F3CF36F0F4CF37F0F6CF82
:100BEA0038F0F7CF39F0F8CF3AF0F5CF3BF046C0FE
:100BFA003CF047C03DF048C03EF049C03FF0CBEC66
:100C0A0008F03FC049F03EC048F03DC047F03CC044
:100C1A0046F03BC0F5FF3AC0F8FF39C0F7FF38C0CD
:100C2A00F6FF37C0F4FF36C0F3FF35C0DAFF34C031
:100C3A00D9FF33C0E2FF32C0E1FF31C0EAFF30C062
:100C4A00E9FF2FC0FBFF2EC0FAFF469211009298CF
:100C5A00899815EC08F087C079F088C07AF02AECF8
:100C6A0007F045A0FED7459023D089A802D0010EEF
:100C7A0001D0000EFF0A0001866F863B8950861953
:100C8A00EF0B8619896E87C079F088C07AF005EC77
:100C9A0004F019D087C079F088C07AF02AEC05F000
:100CAA0012D087C079F088C07AF0B4EC06F00BD085
:100CBA0000018951000AD8B4D8D7010AD8B4EAD7B2
:100CCA00030AD8B4EED70001892B050E8919D8A4D6
:100CDA00C8D7000E896FC5D70300000E00017D6FCB
:100CEA00000E7E6F000E7F6F000E806F79517A11B1
:100CFA007B117C11D8B42AD0010E816F06D0D8900E
:100D0A0079377A377B377C37812B7CAFF8D7D89005
:100D1A007D377E377F3780377951755D7A517659BD
:100D2A007B5177597C517859D8A009D07951755F90
:100D3A007A51765B7B51775B7C51785B7D81D89069
:100D4A007C337B337A337933812FE1D77DC075F0D9
:100D5A007EC076F07FC077F080C078F0120081B252
:100D6A000AD0000120EE02F07951D9267A51DA220E
:100D7A00000EDF6E120081A21200000120EE02F0C6
:100D8A007951D9267A51DA22DF50D8A4120020EEFE
:100D9A0003F07951D9267A51DA22010EDF6E20EE5C
:100DAA0004F07951D9267A51DA22000EDE6E000E4D
:100DBA00DD6E010E756F080E766F66EC08F0010E97
:100DCA000001756F080E766F88EC07F0000120EEBF
:100DDA0002F07951D9267A51DA22010EDF6E120019
:100DEA00AECF42F0AECF42F0949C948E240EAC6EFD
:100DFA00900EAB6EB886000E0001756F120E766FFC
:100E0A007A0E776F000E786F82C079F083C07AF01D
:100E1A0084C07BF085C07CF072EC06F0FF0E000106
:100E2A007525436EFF0E7621446E43C0AFFF9D9831
:100E3A009E9A9D8A9F9A110EE6EC08F0000E246E87
:100E4A00000E256E000E266E1200000120EE02F042
:100E5A007951D9267A51DA22010EDF6E20EE01F09D
:100E6A007951D9267A51DA22010EDF6E20EE04F08A
:100E7A007951D9267A51DA22000EDE6E000EDD6E25
:100E8A0020EE03F07951D9267A51DA22010EDF6E6B
:100E9A00020E756F080E766F66EC08F00D0EE6EC22
:100EAA0008F0020E0001756F080E766F88EC07F0E5
:100EBA001200000E436E000E426E00017751781147
:100ECA00D8B41CD0010E416E04D0D8907737783749
:100EDA00412A78AFFAD7D890423643367751755DB2
:100EEA0078517659D8A005D07751755F7851765BDD
:100EFA004280D89078337733412EEDD742C075F0CF
:100F0A0043C076F01200000E0001786F000E776F72
:100F1A0011D077517525426E78517621436E42C0C1
:100F2A00F6FF43C0F7FF0800F550E6EC08F00001B1
:100F3A00774B782B77517525426E78517621436E1F
:100F4A0042C0F6FF43C0F7FF0800F5500009D8B4C5
:100F5A001200DFD796929690000E956E200EB5EC91
:100F6A0008F0300EC0EC08F0280EDEEC08F0300E67
:100F7A00C0EC08F0500ED6EC08F0300EC0EC08F0C9
:100F8A00380EC0EC08F00C0EC0EC08F0010EC0ECF4
:100F9A0008F0060EC0EC08F0120000017751781133
:100FAA00D8B418D0010E416E04D0D890773778376C
:100FBA00412A78AFFAD77751755D78517659D8A01A
:100FCA0004D07751755F7851765BD8907833773350
:100FDA00412EF1D775C075F076C076F012009EAA40
:100FEA0012009E9AABA204D0AB9800F0AB88120014
:100FFA00230E266012D02550010D010EF324D96E5E
:10100A00000EF420DA6EAECFDFFF252A262A220E42
:10101A0025641200000E256E1200AECF40F01200B9
:10102A00938093820E0EC16EAFEC07F04E0E426EA5
:10103A00200E416E4CEC08F0800E0001826F250EE6
:10104A00836F000E846F000E856FF5EC06F0D08E6C
:10105A00F28EF28CD58E1200436E0D0E4318D8A470
:10106A0004D0800EC0EC08F012000A0E4318D8A46F
:10107A0004D0C00EC0EC08F012008D8043C08CFF73
:10108A008D8200F08D92100EDEEC08F01200020E36
:10109A00D56E41C043F042C044F0431E441E434A49
:1010AA00442AFF0E43240001756FFF0E4420766F19
:1010BA007651D76E75C0D6FFD38EF28AF294F18438
:1010CA0012000BD075C0F6FF76C0F7FF0800F55086
:1010DA0031EC08F00001754B762B75C0F6FF76C02F
:1010EA00F7FF0800F5500009D8B41200EBD7000149
:1010FA0075517703F3CF41F0F4CF42F0755178037D
:10110A00F350422676517703F350422641C075F0D8
:10111A0042C076F0120028C02AF029C02BF02A1EFD
:10112A002B1E2A4A2B2AFF0E2A242C6EFF0E2B2056
:10113A002D6E2D50D76E2CC0D6FF12000001896B80
:10114A00886B876B456A00EE01F0270EEE6AE806A7
:10115A00FDE146904692000EF86E00012CEF06F073
:10116A00426E0D0E416EFC0EE82EFED7412EFCD7C4
:10117A00422EF7D71200426E8D9042C08CFF8D82AC
:10118A0000F08D92100EDEEC08F01200F2A41200AC
:10119A00F2944E0E296E200E286E90EC08F04580CF
:1011AA001200416E030EE82EFED700F0412EFAD748
:1011BA001200416EC80E00D0E82EFDD7412EFAD794
:0E11CA001200416EACA2FED741C0ADFF120074
:020000040020DA
:08000000FFFFFFFFFFFFFFFF00
:020000040030CA
:0E000000090E191EFF8385FF0FC00FE00F4091
:00000001FF
