:040000007FEF04F09A
:0F08000000204D494E482048414320484F0000FA
:10081000938093820E0EC16E2CEC04F093948A9414
:10082000080EA3EC04F081B02CA208D0010E2A6EB1
:10083000080E2B6E6AEC04F02C9202D081A02C8260
:1008400081B22CA005D0010E8DEC04F02C90EBD7DA
:1008500081B2E9D72C80E7D796929690000E956EDC
:10086000200E98EC04F0300E8DEC04F0280EA3EC72
:1008700004F0300E8DEC04F0500EABEC04F0300EB2
:100880008DEC04F0380E8DEC04F00C0E8DEC04F0C1
:10089000010E8DEC04F0060E8DEC04F01200296EB2
:1008A0000D0E2918D8A404D0800E8DEC04F012008F
:1008B0000A0E2918D8A404D0C00E8DEC04F0120042
:1008C0008D8029C08CFF8D8200F08D92100EA3ECDC
:1008D00004F012000AD02AC0F6FF2BC0F7FF080070
:1008E000F5504FEC04F02A4A2B2A2AC0F6FF2BC001
:1008F000F7FF0800F5500009D8B41200ECD72C6AB5
:1009000000EE01F0260EEE6AE806FDE1000EF86E3C
:10091000080EF76E000108EF04F0286E8D9028C0D5
:100920008CFF8D8200F08D92100EA3EC04F012006B
:10093000286E0D0E276EFC0EE82EFED7272EFCD754
:10094000282EF7D71200276EC80E00D0E82EFDD74C
:10095000272EFAD71200276E030EE82EFED700F0DE
:06096000272EFAD7120059
:020000040020DA
:08000000FFFFFFFFFFFFFFFF00
:020000040030CA
:0E000000090E191EFF8385FF0FC00FE00F4091
:00000001FF
