:0400000007EF00F016
:10000800218209ED00F0BBEF00F00600FACF07F0FF
:10001800FBCF08F0E9CF09F0EACF0AF0E1CF0BF007
:10002800E2CF0CF0D9CF0DF0DACF0EF0F3CF0FF00E
:10003800F4CF10F0F6CF11F0F7CF12F0F8CF13F09D
:10004800F5CF14F021C015F022C016F023C017F028
:1000580024C018F0F2A408D0F2944E0E026E200EBE
:10006800016EA8EC00F01F8018C024F017C023F020
:1000780016C022F015C021F014C0F5FF13C0F8FF18
:1000880012C0F7FF11C0F6FF10C0F4FF0FC0F3FF56
:100098000EC0DAFF0DC0D9FF0CC0E2FF0BC0E1FFB4
:1000A8000AC0EAFF09C0E9FF08C0FBFF07C0FAFF62
:1000B800219211000ED089A802D0010E01D0000EA5
:1000C800FF0A196E193A89501918EF0B1918896E19
:1000D80005D02050000AD8B4EED7010A202A030E12
:1000E8002018D8A41200000E206E1200020ED56E41
:1000F80019C01BF01AC01CF01B1E1C1E1B4A1C2A10
:10010800FF0E1B241D6EFF0E1C201E6E1E50D76E88
:100118001DC0D6FFD38EF28AF294F1841200929811
:10012800899893908A904E0E1A6E200E196E7AEC6A
:1001380000F0D08EF28EF28CD58E1FA003D01F90C7
:100148005EEC00F00300F9D701C003F002C004F030
:10015800031E041E034A042AFF0E0324056EFF0E25
:100168000420066E0650D76E05C0D6FF12001F6A1F
:10017800206A21902192000EF86E000193EF00F0A2
:020000040020DA
:08000000FFFFFFFFFFFFFFFF00
:020000040030CA
:0E000000090E191EFF8385FF0FC00FE00F4091
:00000001FF
