:04000000A2EF39F042
:10729400336E33C02CF0120033C028F034C029F010
:1072A4001200336EC80E00D0E82EFDD7332EFAD765
:1072B40012003FEC3BF0080E75EC39F0C4EC39F0E9
:1072C400FFD733C024F034C025F035C026F036C0D3
:1072D40027F01200346E34C0C9FF9EA6FED79E96D6
:1072E400C9CF33F01200346E0D0E336EFC0EE82E4F
:1072F400FED7332EFCD7342EF7D71200366E36B0B5
:1073040002D08B9001D08B80899A35506CEC39F087
:10731400898A8B8012000AD05DC0F6FF5EC0F7FF39
:107324000800F55043EC3CF05D4A5E2A5DC0F6FF70
:107334005EC0F7FF0800F5500009D8B41200ECD77E
:10734400DE0EF66E740EF76E000EF86E00EE60F050
:1073540010EE6AF00900F5CFEEFFE550E150FAE1D6
:1073640000EECAF0260EEE6AE806FDE15F6A00EE62
:1073740001F0320EEE6AE806FDE1000EF86E00013F
:107384005BEF39F0000E346E0A0E336E000E366E6B
:107394000A0E356E63EC39F04C0E43EC3CF0050EEE
:1073A4004AEC39F0030E346EE00E336E4EEC39F0D5
:1073B400480E43EC3CF00A0E43EC3CF0F10E5D6EDB
:1073C4007F0E5E6E8DEC39F01200465025E1F00E12
:1073D400455CD8B01200400E475C010E4858D8B046
:1073E400120045C037F046C038F047C039F048C0F5
:1073F4003AF0000E3C6E010E3B6E000E3E6E010E26
:107404003D6EA4EC3AF0899A4A506CEC39F049503C
:107414006CEC39F0898A12001200000E3B6E000EEB
:107424003C6E000E3D6E000E3E6E33A008D0375009
:107434003B2638503C2239503D223A503E22D890C7
:107444003736383639363A36D890363235323432E1
:1074540033323350341035103610D8A4E6D73BC03D
:1074640033F03CC034F03DC035F03EC036F012007D
:10747400346E3404D8A408D093809392929A949E44
:10748400C680C692C69407D093809382928A949EB3
:10749400C690C692C684C6960AD0C78C01D0C79C33
:1074A400C69812D0C78C01D0C79CC6880DD0335063
:1074B400000AD8B4F2D7010AD8B4F1D7030AD8B471
:1074C400F1D7010AD8B4F0D7898AC68AC7909E96A4
:1074D400000EC26E0F0EC16E1200CB05392C0034A3
:1074E40002CF0300C130E803850078EA020000ED12
:1074F4000464031281F70120C00123C10110C502F5
:107504003E28C701863601483A0155B1020018B633
:1075140003088227F20100260101E00F0F312B0C32
:107524000E084EF1370710030E0900E10F000E1488
:1075340003110731C148080F0C31360F118029801F
:10754400360140003B5037243F6E3C503820406E9B
:10755400FF0E3F24416EFF0E4020426E3D50392401
:107564003F6E3E503A20406EFF0E3F24436EFF0EA6
:107574004020446E2A0E356E000E80EC39F0899A54
:1075840038506CEC39F037506CEC39F042506CECFC
:1075940039F041506CEC39F0898A2B0E356E000EAF
:1075A40080EC39F0899A3A506CEC39F039506CEC33
:1075B40039F044506CEC39F043506CEC39F0898A62
:1075C4002C0E356E000E80EC39F01200465054E15A
:1075D400F00E455CD8B01200400E475C010E4858CE
:1075E400D8B0120049504A10D8B41200FF0E4D6EA4
:1075F400FF0E4E6E495045244F6E4A504620506E41
:107604004D504F264E505022400E4F5C010E5058A4
:10761400D8A00ED045C04DF046C04EF04D1E4E1EB3
:107624004D4A4E2AF00E4D24496E000E4E204A6EED
:1076340045C037F046C038F047C039F048C03AF08A
:1076440049C03BF04AC03CF0000E3E6E010E3D6E58
:10765400A4EC3AF0899A06D04C506CEC39F04B50BB
:107664006CEC39F04906D8A04A064928F5E14A28C5
:10767400D8A4F2D7898A1200120094909492000E32
:10768400336E010E3AEC3AF0080E53EC39F0899A55
:107694008B92080E75EC39F08B82010E356E000E5C
:1076A40080EC39F0200E75EC39F0300E75EC39F0C1
:1076B400600E3A6E000E3B6E25D039C035F0000ED8
:1076C40080EC39F0899A3AC0D9FF3BC0DAFFDF5029
:1076D400386E3A4A3B2A38507F0B376E09D03AC08D
:1076E400D9FF3BC0DAFFDF506CEC39F03A4A3B2A51
:1076F40037063728D8A4F3D7898A38AE03D0A00E2A
:1077040075EC39F03AC0D9FF3BC0DAFFDF50396E6F
:107714003A4A3B2A3950D8A4D0D7898A000E2F6E12
:10772400000E2E6E000E316E000E306E000E256EB1
:10773400000E246E000E276E000E266E070E296EB4
:10774400E00E286E2A682B68010E2C6E010E2D6E39
:10775400120049504A10D8B412004B504C10D8B4FF
:107764001200465003E1F00E455CD8B01200400E02
:10777400475C010E4858D8B01200FF0E4F6EFF0E42
:10778400506E49504524516E4A504620526E4F5017
:10779400512650505222525004E1F00E515CD8A0B0
:1077A4000ED045C04FF046C050F04F1E501E4F4AF9
:1077B400502AF00E4F24496E000E50204A6EFF0EE0
:1077C4004F6EFF0E506E4B504724516E4C50482064
:1077D400526E4F50512650505222400E515C010EB1
:1077E4005258D8A00ED047C04FF048C050F04F1E9A
:1077F400501E4F4A502A400E4F244B6E010E50200B
:107804004C6E45C037F046C038F047C039F048C028
:107814003AF049C03BF04AC03CF04BC03DF04CC08C
:107824003EF0A4EC3AF049C033F04AC034F0356A73
:10783400366A4BC037F04CC038F0396A3A6A0FECFC
:107844003AF033C053F034C054F035C055F036C06C
:1078540056F0899A06D04E506CEC39F04D506CECD1
:1078640039F05306000E545A555A565A5328F3E128
:107874005428F1E15528EFE15628D8A4ECD7898A99
:1078840012005A6E200E5A18D8A407D0245025107E
:10789400D8A403D02D50D8A412000D0E5A18D8A481
:1078A40005D0000E256E000E246E12000A0E5A1822
:1078B400D8A407D02C50080DF3502626F4502722C4
:1078C4001200000E5C6E040E5C6401D091D05A501C
:1078D400050DF10E576E7A0E586EF3505726F4507C
:1078E40058225C50010DF3505726F450582257C0CB
:1078F400F6FF58C0F7FF0800F5CF59F0000E5B6E95
:10790400070E5B6401D072D059A033D02C04D8A4E4
:1079140013D05C502424456E000E2520466E5B5027
:107924002624476E000E2720486E28C049F029C03F
:107934004AF0E7EC39F056D05C502C022450F32482
:10794400456E2550F420466E5B502C022650F324DD
:10795400476E2750F420486E2CC049F04A6A2CC068
:107964004BF04C6A28C04DF029C04EF0ABEC3BF014
:1079740039D028502A1804E129502B18D8B432D011
:107984002C04D8A413D05C502424456E000E25206A
:10799400466E5B502624476E000E2720486E2AC090
:1079A40049F02BC04AF0E7EC39F01CD05C502C02B3
:1079B4002450F324456E2550F420466E5B502C026F
:1079C4002650F324476E2750F420486E2CC049F00B
:1079D4004A6A2CC04BF04C6A2AC04DF02BC04EF0C2
:1079E400ABEC3BF05B2AD89059328AD75C2A6BD730
:1079F40028502A1804E129502B18D8B433D02C0469
:107A0400D8A415D0050E2424456E000E2520466EFC
:107A140026C047F027C048F0000E4A6E080E496E93
:107A24002AC04BF02BC04CF0E8EC3AF01BD02C50A1
:107A3400050D2450F324456E2550F420466E26C0CF
:107A440047F027C048F02CC049F04A6A2C50080D72
:107A5400F3CF4BF0F4CF4CF02AC04DF02BC04EF0D6
:107A6400ABEC3BF02C50060DF3502426F4502522A9
:107A74002C50060DF00EF326000EF4222450F35C75
:107A84002550F458D8B004D0000E256EF00E246EA4
:107A94002D50D8B412002C50050D2450F326255037
:107AA400F422F45004E1F10EF35CD8A01200000EAD
:107AB400256E000E246E2C50080DF3502626F4502B
:107AC4002722400E576E010E586E2C50080D575049
:107AD400F3265850F4222650F35C2750F458D8B0BB
:107AE4001200010E276E400E266E120000000000E8
:107AF40000003E5B4F5B3E3E6B4F6B3E1C3E7C3E4C
:107B04001C183C7E3C181C577D571C1C5E7F5E1C59
:107B140000183C1800FFE7C3E7FF0018241800FF13
:107B2400E7DBE7FF30483A060E2629792926407F0D
:107B3400050507407F05253F5A3CE73C5A7F3E1C1C
:107B44001C08081C1C3E7F14227F22145F5F005F08
:107B54005F06097F017F006689956A6060606060E6
:107B640094A2FFA29408047E040810207E2010082A
:107B7400082A1C08081C2A08081E101010100C1EC5
:107B84000C1E0C30383E3830060E3E0E0600000047
:107B9400000000005F00000007000700147F147F4E
:107BA40014242A7F2A12231308646236495620506B
:107BB4000008070300001C2241000041221C002A87
:107BC4001C7F1C2A08083E08080080703000080842
:107BD400080808000060600020100804023E5149B3
:107BE400453E00427F400072494949462141494D82
:107BF400331814127F1027454545393C4A49493109
:107C040041211109073649494936464949291E0087
:107C14000014000000403400000008142241141431
:107C2400141414004122140802015909063E415D4E
:107C3400594E7C1211127C7F494949363E414141DB
:107C4400227F4141413E7F494949417F0909090158
:107C54003E414151737F0808087F00417F41002065
:107C640040413F017F081422417F404040407F0251
:107C74001C027F7F0408107F3E4141413E7F090979
:107C840009063E4151215E7F091929462649494981
:107C94003203017F01033F4040403F1F2040201F2B
:107CA4003F4038403F6314081463030478040361BD
:107CB40059494D43007F41414102040810200041CD
:107CC40041417F0402010204404040404000030758
:107CD400080020545478407F2844443838444444AD
:107CE40028384444287F385454541800087E090224
:107CF40018A4A49C787F0804047800447D400020E4
:107D040040403D007F1028440000417F40007C0437
:107D14007804787C080404783844444438FC1824F3
:107D2400241818242418FC7C0804040848545454C7
:107D34002404043F44243C4040207C1C2040201C5C
:107D44003C4030403C44281028444C9090907C4463
:107D540064544C44000836410000007700000041A0
:107D640036080002010204023C2623263C1EA1A17F
:107D740061123A4040207A38545455592155557966
:107D84004122545478422155547840205455794026
:107D94000C1E527212395555555939545454593987
:107DA400555454580000457C410002457D42000171
:107DB400457C407D1211127DF0282528F07C545515
:107DC40045002054547C547C0A097F49324949496E
:107DD400323A4444443A324A4848303A4141217A9A
:107DE4003A42402078009DA0A07D3D4242423D3D64
:107DF4004040403D3C24FF2424487E4943662B2FC9
:107E0400FC2F2BFF0929F620C0887E090320545437
:107E140079410000447D413048484A32384040228C
:107E24007A007A0A0A727D0D19317D2629292F28B4
:107E3400262929292630484D4020380808080808F2
:107E4400080808382F10C8ACBA2F102834FA0000DC
:107E54007B000008142A142222142A140855005501
:107E64000055AA55AA55AAFF55FF55FF000000FF6B
:107E740000101010FF00141414FF001010FF00FF76
:107E84001010F010F0141414FC001414F700FF0088
:107E940000FF00FF1414F404FC141417101F101036
:107EA4001F101F1414141F00101010F00000000005
:107EB4001F101010101F10101010F010000000FF01
:107EC400101010101010101010FF10000000FF14FC
:107ED4000000FF00FF00001F10170000FC04F41452
:107EE400141710171414F404F40000FF00F714140A
:107EF4001414141414F700F7141414171410101F86
:107F0400101F141414F4141010F010F000001F10BB
:107F14001F0000001F14000000FC140000F010F00B
:107F24001010FF10FF141414FF141010101F000081
:107F34000000F010FFFFFFFFFFF0F0F0F0F0FFFF94
:107F4400FF0000000000FFFF0F0F0F0F0F38444425
:107F54003844FC4A4A4A347E02020606027E027E05
:107F64000263554941633844443C04407E201E204A
:107F740006027E020299A5E7A5991C2A492A1C4CEF
:107F84007201724C304A4D4D303048784830BC62F2
:107F94005A463D3E494949007E0101017E2A2A2A6A
:107FA4002A2A44445F444440514A444040444A518C
:107FB400400000FF0103E080FF000008086B6B082D
:107FC4003612362436060F090F0600001818000072
:107FD400001010003040FF0101001F01011E0019B4
:107FE4001D1712003C3C3C3C0000000000484F20A0
:0C7FF4004D494E48200A0D484143000052
:020000040020DA
:08000000FFFFFFFFFFFFFFFF00
:020000040030CA
:0E000000090E191EFF8385FF0FC00FE00F4091
:00000001FF
