:0400000065EF00F0B8
:06000800468205ED04F044
:100018004680D8CFA6F0E8CFA7F0E0CFA8F0FACF77
:10002800A9F0FBCFAAF0E9CFABF0EACFACF0E1CF73
:10003800ADF0E2CFAEF0D9CFAFF0DACFB0F0F3CF7A
:10004800B1F0F4CFB2F0F6CFB3F0F7CFB4F0F8CF09
:10005800B5F0F5CFB6F046C0B7F047C0B8F048C025
:10006800B9F049C0BAF01EEC05F0BAC049F0B9C001
:1000780048F0B8C047F0B7C046F0B6C0F5FFB5C005
:10008800F8FFB4C0F7FFB3C0F6FFB2C0F4FFB1C0C9
:10009800F3FFB0C0DAFFAFC0D9FFAEC0E2FFADC01A
:1000A800E1FFACC0EAFFABC0E9FFAAC0FBFFA9C0F3
:1000B800FAFFA8C0E0FFA7C0E8FFA6C0D8FF469097
:0600C80010008DEF05F0B1
:0908000000484F2048414300006C
:10080A000600FACF31F0FBCF32F0E9CF33F0EACF6E
:10081A0034F0E1CF35F0E2CF36F0D9CF37F0DACF86
:10082A0038F0F3CF39F0F4CF3AF0F6CF3BF0F7CF08
:10083A003CF0F8CF3DF0F5CF3EF046C03FF047C060
:10084A0040F048C041F049C042F0CDEC05F042C04A
:10085A0049F041C048F040C047F03FC046F03EC0B2
:10086A00F5FF3DC0F8FF3CC0F7FF3BC0F6FF3AC0BA
:10087A00F4FF39C0F3FF38C0DAFF37C0D9FF36C0FA
:10088A00E2FF35C0E1FF34C0EAFF33C0E9FF32C0FE
:10089A00FBFF31C0FAFF46921100000E0001C36F40
:1008AA00000EC46F000EC56F000EC66FBF51C01197
:1008BA00C111C211D8B42AD0010EC76F06D0D89080
:1008CA00BF37C037C137C237C72BC2AFF8D7D890A6
:1008DA00C337C437C537C637BF51BB5DC051BC59D2
:1008EA00C151BD59C251BE59D8A009D0BF51BB5F31
:1008FA00C051BC5BC151BD5BC251BE5BC381D890C4
:10090A00C233C133C033BF33C72FE1D7C3C0BBF033
:10091A00C4C0BCF0C5C0BDF0C6C0BEF01200AECFA8
:10092A00CCF0AECFCCF0949C948E240EAC6E900E8C
:10093A00AB6EB886000E0001BB6F120EBC6F7A0E4A
:10094A00BD6F000EBE6FC8C0BFF0C9C0C0F0CAC03C
:10095A00C1F0CBC0C2F052EC04F0FF0E0001BB257F
:10096A00CD6FFF0EBC21CE6FCDC0AFFF9D989E9A72
:10097A009D8A9F9A110EE0EC05F0000E246E000E7F
:10098A00256E000E266E120096929690000E956EB7
:10099A00200EB4EC05F0300EC1EC05F0280ED8ECB0
:1009AA0005F0300EC1EC05F0080ED8EC05F0300E5B
:1009BA00C1EC05F0380EC1EC05F00C0EC1EC05F0E7
:1009CA00010EC1EC05F0060EC1EC05F0080ED8ECDC
:1009DA0005F0800EC1EC05F0080ED8EC05F0120007
:1009EA0092988998938093820E0EC16EC9EC04F096
:1009FA004E0E0001BC6F200EBB6F5DEC05F0800E41
:100A0A000001C86F250EC96F000ECA6F000ECB6FAA
:100A1A0094EC04F0D08EF28EF28C010E0001BD6FC0
:100A2A00080EBE6F77EC05F0D58E310EE0EC05F0BE
:100A3A00FCD79EAA12009E9AABA204D0AB9800F0F3
:100A4A00AB881200230E266012D02550010D010E2C
:100A5A00F324D96E000EF420DA6EAECFDFFF252A1A
:100A6A00262A220E25641200000E256E1200AECF31
:100A7A0043F012000001BC6F0D0E0001BC19D8A48E
:100A8A0004D0800EC1EC05F012000A0E0001BC1958
:100A9A00D8A404D0C00EC1EC05F012008D80BCC0F1
:100AAA008CFF8D9200F08D82100ED8EC05F01200AA
:100ABA00020ED56EBBC0BDF0BCC0BEF00001BD1FAA
:100ACA00BE1FBD4BBE2BFF0EBD25BF6FFF0EBE2145
:100ADA00C06FC051D76EBFC0D6FFD38EF28AF294D0
:100AEA00F18412000BD0BDC0F6FFBEC0F7FF0800AC
:100AFA00F5503FEC05F00001BD4BBE2BBDC0F6FF23
:100B0A00BEC0F7FF0800F5500009D8B41200EBD7B1
:100B1A0000EE60F0460EEE6AE806FDE1456A00EE78
:100B2A0001F02A0EEE6AE806FDE146904692000EB2
:100B3A00F86E0001F5EF04F02BC02DF02CC02EF05A
:100B4A002D1E2E1E2D4A2E2AFF0E2D242F6EFF0E2D
:100B5A002E20306E3050D76E2FC0D6FF1200000103
:100B6A00BB6F0D0E446EFC0EE82EFED7442EFCD74A
:100B7A000001BB2FF6D712000001BB6F8D90BBC0DE
:100B8A008CFF8D9200F08D82100ED8EC05F01200C9
:100B9A00F2A41200F2944E0E2C6E200E2B6EA1ECD3
:100BAA0005F045881200446EC80E00D0E82EFDD725
:100BBA00442EFAD71200446EACA2FED744C0ADFF51
:020BCA00120017
:020000040020DA
:08000000FFFFFFFFFFFFFFFF00
:020000040030CA
:0E000000090E191EFF8385FF0FC00FE00F4091
:00000001FF
