:0400000050EF3FF08E
:107DE400406EC80E00D0E82EFDD7402EFAD7120000
:107DF400406E030EE82EFED700F0402EFAD7120094
:107E0400416E0D0E406EFC0EE82EFED7402EFCD7C0
:067E1400412EF7D7120019
:107E1B004C69EA6E206368F3203F69EA6E210042E9
:107E2B00796520427965202100436E43C041F00003
:107E3B000E41EC3FF0080EF2EC3EF0080EF2EC3E79
:107E4B00F01200436E43C041F0010E41EC3FF008CD
:107E5B000EF2EC3EF0080EF2EC3EF012004A6E47CA
:107E6B00C044F04A5069EC3FF048C044F049C0456B
:107E7B00F084EC3FF01200426E41C08CFF42B00226
:107E8B00D08D9001D08D808D82080EFAEC3EF08D56
:107E9B00928D8012001B0EF66E7E0EF76E000EF8A2
:107EAB006E00EE27F010EE19F00900F5CFEEFFE5AE
:107EBB0050E150FAE100EE01F0260EEE6AE806FD05
:107ECB00E10001CEEF3FF0456E020E1AEC3FF001E0
:107EDB000E456403D0C00E1AEC3FF0100E44640242
:107EEB00D0110E446E010E466E04D0140E1AEC3FE8
:107EFB00F0462A4450465CD8B01200F7D7000E4625
:107F0B006E0CD04650010DF3504424D96EF45045FD
:107F1B0020DA6EDF5027EC3FF0462A4650010DF376
:107F2B00504424D96EF4504520DA6EDF50D8B41289
:107F3B0000E8D7000E956E96909692200E02EC3FBD
:107F4B00F0300E1AEC3FF0200E02EC3FF0300E1A20
:107F5B00EC3FF0080EF2EC3EF0080EF2EC3EF008AF
:107F6B000EF2EC3EF0080EF2EC3EF0080EF2EC3E98
:107F7B00F0300E1AEC3FF0380E1AEC3FF00C0E1AE4
:107F8B00EC3FF0010E1AEC3FF0060E1AEC3FF0122C
:107F9B00009FEC3FF0270E446E000E456E84EC3FC5
:107FAB00F0000E4B6E5F0E4B6401D014D0200E020E
:107FBB00EC3FF0200E02EC3FF0200E02EC3FF020E5
:107FCB000E02EC3FF0200E02EC3FF01C0E1AEC3FC1
:107FDB00F04B2AE8D7010E1AEC3FF0020E1AEC3FD9
:107FEB00F0060E476E360E486E000E496E020E34CA
:057FFB00EC3FF0FFD790
:020000040020DA
:08000000FFFFFFFFFFFFFFFF00
:020000040030CA
:0E000000090E191EFF8385FF0FC00FE00F4091
:00000001FF
